:020000040800F2
:100000000050002079220008E5210008E7210008BF
:10001000E9210008EB210008ED21000800000000A4
:10002000000000000000000000000000EF210008B8
:10003000F121000800000000F3210008F52100086C
:10004000C1220008C1220008C1220008C122000804
:10005000C1220008C1220008C1220008C1220008F4
:10006000C1220008C1220008C1220008C1220008E4
:10007000C1220008C1220008C1220008C1220008D4
:10008000C1220008C1220008C1220008C1220008C4
:10009000C1220008C1220008C1220008C1220008B4
:1000A000C1220008C1220008C1220008C1220008A4
:1000B000C1220008C1220008C1220008C122000894
:1000C000C1220008C1220008C1220008C122000884
:1000D000C1220008C1220008C1220008C122000874
:1000E000C1220008C1220008C1220008000000004F
:1000F0000000000000000000000000000000000000
:0C01000000000000000000005FF808F1A3
:10010C0010B5054C237833B9044B13B10448AFF345
:10011C0000800123237010BD70000020000000003F
:10012C00902B000808B5034B1BB103490348AFF3F0
:10013C00008008BD0000000074000020902B000817
:10014C00034613F8012B002AFBD1181A013870470B
:10015C00084B10B5044618684FF47A73B0FBF3F0F3
:10016C0000F080F8002221464FF0FF3000F046F8F6
:10017C00002010BD08000020074A08B513680320B2
:10018C0043F01003136000F027F80020FFF7E0FFA6
:10019C0001F088FF002008BD00200240024A1368CD
:1001AC0001331360704700BF44010020014B1868F5
:1001BC00704700BF4401002037B50190FFF7F6FFF0
:1001CC000546019C631C18BF0134FFF7EFFF401B71
:1001DC00A042FAD303B030BD074A0002D36800F442
:1001EC00E06023F4E0631B041B0C43F0BF6343F497
:1001FC0000330343D360704700ED00E0174B30B57C
:10020C00DC68C4F30224C4F10703251D042B28BFAA
:10021C000423062D4FF0010598BF002405FA03F3C3
:10022C0003F1FF3388BF033C1940A14005FA04F4E5
:10023C00013C2240002842EA01024FEA0212AFBF01
:10024C0000F16040064B00F00F00D2B2A5BFD2B255
:10025C0000F561401A5480F8002330BD00ED00E039
:10026C0014ED00E00138B0F1807F0AD2F021064B8A
:10027C00064A586082F823100020072298601A6002
:10028C0070470120704700BF10E000E000ED00E077
:10029C002DE9F74F00221646654BDFF8A4E1DFF895
:1002AC00A4C14FF001080C6808FA06F808EA040427
:1002BC00A0457FD14D68122D00F0AF8000F28880F0
:1002CC00022D00F0A7807CD8002D00F08E80012D2F
:1002DC0000F09E804FF00F09FF2C93BF824606F171
:1002EC008045083DD0F800B092BFB500D0F804B0FE
:1002FC00AD0009FA05F82BEA080802FA05F588BFE3
:10030C0000F1040A48EA0505CAF80050D1F804A027
:10031C001AF0805F4ED0474D464FAD6926F003086A
:10032C0045F00105BD61BD6908F1804805F0010586
:10033C00019508F5803806F0030B019D4FEA8B0BF5
:10034C00D8F8085009FA0BF925EA09093A4DA842E0
:10035C0068D005F58065A84266D005F58065A84291
:10036C0064D005F58065A8420CBF0325042505FA69
:10037C000BF545EA0905C8F808501D681AF4803FCA
:10038C0014BF2543A5431D605D681AF4003F14BFDC
:10039C002543A5435D609D681AF4801F14BF254357
:1003AC00A5439D60DD681AF4001F14BF2C4325EA99
:1003BC000404DC600136102E7FF473AF03B0BDE88B
:1003CC00F08F032D22D0112D84D1CA68043281E71D
:1003DC001A4FBD4209D012D8DFF86C904D4504D0AD
:1003EC0009F580394D457FF475AF8A68C2B1012A91
:1003FC000CBFC0F81080C0F8148008226AE775455D
:10040C00F3D06545F1D0DFF84490EBE7002261E7CB
:10041C00CA685FE7CA6808325CE7CA680C3259E7F9
:10042C00042257E70025A2E70125A0E702259EE755
:10043C00000401400010024000080140000021109F
:10044C0000003110000032100000111000002210CA
:10045C000AB1016170470904FBE7000003682DE94C
:10046C00F341DB07054610D42B689F075ED42B683D
:10047C00190700F195802B685A0700F1BF80EA69D3
:10048C00002A40F02D81002014E0904C636803F0AA
:10049C000C03042B07D0636803F00C03082B0CD15E
:1004AC006368DE0309D523689C03DDD56B68002BDC
:1004BC00DAD1012002B0BDE8F0816B68B3F5803F62
:1004CC0010D1236843F480332360FFF76FFE064698
:1004DC0023689803C8D4FFF769FE801B6428F7D9FA
:1004EC000320E7E79BB9236823F480332360236858
:1004FC0023F480232360FFF759FE064623689903F3
:10050C00B2D5FFF753FE801B6428F7D9E8E7B3F5A3
:10051C00A02F236803D143F480232360D1E723F475
:10052C0080332360236823F48023CDE7674C636812
:10053C0013F00C0F07D0636803F00C03082B10D1D9
:10054C006368DA030DD423689B0702D52B69012B52
:10055C00AFD123686A6923F0F80343EAC20323602E
:10056C0085E72A695A4B6AB101221A60FFF71EFE11
:10057C00064623689F07ECD4FFF718FE801B022861
:10058C00F7D9ADE71A60FFF711FE06462368980706
:10059C007FF56DAFFFF70AFE801B0228F6D99FE7A7
:1005AC00AA694A4C4B4BDAB101221A60FFF7FEFDE7
:1005BC000646636A9B070DD54FF4FA52464B1B68EF
:1005CC00B3FBF2F3019300BF019B5A1E0192002B67
:1005DC00F9D150E7FFF7EAFD801B0228E9D97FE744
:1005EC001A60FFF7E3FD0646636A9F077FF543AF8A
:1005FC00FFF7DCFD801B0228F6D971E7334CE36969
:10060C00D80024D40127E36943F08053E361E36904
:10061C0003F080530093009B304E3368D90518D5F6
:10062C00EB68012B26D1236A43F001032362FFF709
:10063C00BDFD41F288368046236A9B073FD5002FCB
:10064C003FF41DAFE36923F08053E36117E7002704
:10065C00E2E7336843F480733360FFF7A7FD80460D
:10066C003368DA05DCD4FFF7A1FDA0EB08006428A1
:10067C00F6D935E7ABB9236A41F2883823F0010388
:10068C002362236A23F004032362FFF78FFD0646DF
:10069C00236A9807D3D5FFF789FD801B4045F7D90E
:1006AC001EE7052B236A03D143F004032362BAE748
:1006BC0023F001032362236A23F00403B6E7FFF758
:1006CC0075FDA0EB0800B042B6D909E70010024056
:1006DC0000004242800442420800002000700040AA
:1006EC00224C636803F00C03082B3FF4E2AE0023AA
:1006FC001F4E022A33602BD1FFF758FD07462368A3
:10070C0099011FD42B6AB3F5803F05D16268A968A3
:10071C0022F400320A436260696A62680B4322F475
:10072C0074121343636001233360FFF73FFD0546EA
:10073C0023689A013FF5A7AEFFF738FD401B02284E
:10074C00F6D9CDE6FFF732FDC01B0228D7D9C7E694
:10075C00FFF72CFD054623689B017FF594AEFFF750
:10076C0025FD401B0228F6D9BAE600BF0010024056
:10077C006000424230B51A4B87B002AC03F1100551
:10078C00224618685968083303C2AB421446F7D1A5
:10079C0001238DF80430022312498DF805304B6883
:1007AC0003F00C02082A18D1C3F38342DB0348BFC1
:1007BC004B6806A8024448BFC3F3404312F8100C20
:1007CC0041BF06AA9B1813F8142C074B54BF074BB8
:1007DC00B3FBF2F3584307B030BD0348FBE700BF4F
:1007EC00A82B00080010024000127A0000093D00FE
:1007FC004D4A2DE9F0411368054603F007038B427F
:10080C000E4628D32A68910732D4D20738D4464AE8
:10081C00136803F007039E4273D32A68434C12F00B
:10082C00040F79D1130706D563682A6923F4605342
:10083C0043EAC2036360FFF79DFF63683C4AC3F35E
:10084C000313D35CD8403B4B18600020FFF780FCAF
:10085C000020BDE8F081136823F007030B431360FD
:10086C00136803F007039942CCD00120BDE8F08156
:10087C002E49A8684B6823F0F00303434B60C4E790
:10088C006A682A4C012A23681CD113F4003FECD06F
:10089C00636841F2883823F0030313436360FFF766
:1008AC0085FC6B680746012B14D1636803F00C03BD
:1008BC00042BACD0FFF77AFCC01B4045F5D90320C4
:1008CC00BDE8F081022A02D113F0007FDFE713F0BC
:1008DC00020FDCE7022B0FD1636803F00C03082B2B
:1008EC0095D0FFF763FCC01B4045F5D9E7E7FFF750
:1008FC005DFCC01B4045E2D8636813F00C0FF6D1C9
:10090C0085E7136823F0070333431360136803F080
:10091C0007039E42A9D180E76368E96823F4E0638A
:10092C000B4363607EE700BF0020024000100240D2
:10093C00C330000808000020044B054A5B68C3F371
:10094C000223D35C034A1068D84070470010024061
:10095C00D330000808000020044B054A5B68C3F341
:10096C00C223D35C034A1068D84070470010024081
:10097C00D3300008080000202DE9F04104468846D9
:10098C0017461D46069E2268936838EA03030CBF7F
:10099C00012300239F4202D10020BDE8F0816B1C93
:1009AC00F2D055BB23685A6822F0E0025A606268A4
:1009BC00B2F5827F0AD1A268B2F5004F02D0B2F52F
:1009CC00806F03D11A6822F040021A60A26AB2F555
:1009DC00005F09D11A6822F400521204120C1A603A
:1009EC001A6842F400521A60012384F85130002333
:1009FC00032084F85030BDE8F081FFF7D7FB801B53
:100A0C008542C0D8CEE713B50B4600928021002258
:100A1C000446FFF7B1FF20B10320636D43F02003C0
:100A2C00636502B010BD10B50446002836D0002313
:100A3C00836290F8513003F0FF021BB980F850200C
:100A4C0001F054FB0223216884F851300B68A06834
:100A5C0023F040030B606368A2690343E06803431F
:100A6C002069034360690343E0690343206A03433D
:100A7C00A06A034302F4007003430B60120C636A18
:100A8C0002F004021A434A60CB69002023F400638D
:100A9C00CB610123606584F8513010BD012010BD7D
:100AAC002DE9FF411E4690F850300446012B0D46AF
:100ABC00904600F09C80012380F85030FFF776FBC5
:100ACC00074694F85100C0B2012840F08E80002DEA
:100ADC004ED0B8F1000F4BD0032384F851300023D3
:100AEC006365A363A4F83680A387E38763642364F8
:100AFC00A3682563B3F5004F2368A4F8348002BFC4
:100B0C001A6842F480421A601A6852065EBF1A686C
:100B1C0042F040021A60E268B2F5006F626838D1A8
:100B2C001AB1E28E92B2012A06D135F8022BDA60A4
:100B3C00E38E013B9BB2E386E38E9BB293B90097A5
:100B4C003346012202212046FFF716FF78B93A46B8
:100B5C0031462046FFF757FF002838D020230120CC
:100B6C00636505E023689A689007DED44EB90320CC
:100B7C00012384F85130002384F8503004B0BDE8D0
:100B8C00F081711CD8D0FFF711FBC01B8642D3D863
:100B9C00EDE71AB1E28E92B2012A06D115F8012BBB
:100BAC001A73E38E013B9BB2E386E38E9BB2002B60
:100BBC00C5D023689A689207F0D4002ED7D0731C46
:100BCC00F3D0FFF7F3FAC01B8642EED8CFE7A36849
:100BDC0033B903932368DA6803929B680393039BEE
:100BEC00606D003018BF0120C2E70220C0E7022070
:100BFC00C4E72DE9F043994690F8503085B0012BAD
:100C0C0004460D4616460C9F00F0EE80012380F83A
:100C1C005030FFF7CBFA94F851308046DBB2012B01
:100C2C0061680AD0B1F5827F40F0DC80A268002AAE
:100C3C0040F0D880042B40F0D580002D4ED0002EF3
:100C4C004CD0B9F1000F49D094F85130A663012B68
:100C5C0004BF052384F85130002363652364636467
:100C6C002368A4F83E90A4F836901A68A4F83C9037
:100C7C00500658BF1A68256358BF42F04002A4F8CA
:100C8C00349058BF1A60E268B2F5006F5DD119B1AB
:100C9C00E28E92B2012A06D135F8022BDA60E38E8D
:100CAC00013B9BB2E3864FF00109E38E9BB2BBB9CB
:100CBC00E38F9BB2A3B9CDF800803B460122022101
:100CCC002046FFF759FE002835D1424639462046CA
:100CDC00FFF799FE00287AD02023636501202BE0D2
:100CEC00B9F1000F0FD0E38E9BB263B123689A6801
:100CFC00910708D54FF0000935F8022BDA60E38E26
:100D0C00013B9BB2E386E38F9BB263B123689A6885
:100D1C00D20708D54FF00109DB6826F8023BE38FB8
:100D2C00013B9BB2E387781CBFD0FFF73FFAA0EBE7
:100D3C0008008742B9D80320012384F851300023DE
:100D4C0084F8503005B0BDE8F08319B1E28E92B250
:100D5C00012A06D115F8012B1A73E38E013B9BB2C5
:100D6C00E3864FF00109E38E9BB21BB9E38F9BB274
:100D7C00002BA0D0B9F1000F0FD0E38E9BB263B162
:100D8C0023689A68910708D54FF000092A78013535
:100D9C001A73E38E013B9BB2E386E38F9BB26BB17C
:100DAC0023689A68D20709D54FF00109DB68013630
:100DBC0006F8013CE38F013B9BB2E3877B1CD2D04E
:100DCC00FFF7F4F9A0EB08008742CCD8B3E7A3688F
:100DDC00002BB1D123680390DA6803929B680393CC
:100DEC00039BA9E70220A7E70220ABE72DE9F3411B
:100DFC001E4643680446B3F5827F0D4690460CD1DF
:100E0C00836853B9042380F85130134600960A4680
:100E1C00FFF7EFFE02B0BDE8F08194F85030012BE3
:100E2C0000F08180012384F85030FFF7BFF90746AA
:100E3C0094F85100C0B2012873D1002D58D0B8F1EC
:100E4C00000F55D0042384F85130002363652363CD
:100E5C00A4F83E80A386E38623646364A368A56339
:100E6C00B3F5004F2368A4F83C8002BF1A6822F443
:100E7C0080421A601A6852065EBF1A6842F040023D
:100E8C001A60E368CBB1E38F9BB2D3B123689A6845
:100E9C00D2073CD5DB6825F8023BE38F013B9BB2C4
:100EAC00E387F0E723689A68D0071FD51B7B05F80A
:100EBC00013BE38F013B9BB2E387E38F9BB2002B9B
:100ECC00F0D16368B3F5827F0BD1A368B3F5004F03
:100EDC0002D0B3F5806F04D12268136823F040036D
:100EEC001360606D003018BF012001E03EB9032093
:100EFC00012384F85130002384F850308AE7711CA8
:100F0C00DBD0FFF753F9C01B8642D6D8EFE7002E93
:100F1C00EDD0731CB7D0FFF749F9C01B8642B2D88D
:100F2C00E5E70220E4E7022074E700002DE9F04732
:100F3C000568C2682B69016923F4405313432B6184
:100F4C008368EA680B43416922F4B05222F00C0228
:100F5C000B431343EB606B69826923F440731343B7
:100F6C006B61404B81469D424FF0190446D1FFF70F
:100F7C00F3FC04FB00F3D9F804604FF06408B600EE
:100F8C00B3FBF6F3B3FBF8F31E01FFF7E5FC60438C
:100F9C00D9F804309B00B0FBF3F7FFF7DDFC60439E
:100FAC00D9F804309B00B0FBF3F3B3FBF8F308FB68
:100FBC0013731B013233B3FBF8F303F0F007FFF7A5
:100FCC00CBFC6043D9F804209200B0FBF2FAFFF797
:100FDC00C3FC6043D9F804309B00B0FBF3F3B3FBC4
:100FEC00F8F308FB13A31B013233B3FBF8F303F044
:100FFC000F033B433344AB60BDE8F087FFF79CFC29
:10100C0004FB00F3D9F804604FF06408B600B3FB9E
:10101C00F6F3B3FBF8F31E01FFF78EFC6043D9F82F
:10102C0004309B00B0FBF3F7FFF786FC6043D9F864
:10103C0004309B00B0FBF3F3B3FBF8F308FB137322
:10104C001B013233B3FBF8F303F0F007FFF774FC2A
:10105C006043D9F804209200B0FBF2FAFFF76CFC65
:10106C00B7E700BF00380140F8B504460E461746F6
:10107C001D4621680B6836EA030301D10020F8BD38
:10108C006B1CF7D095B923680320DA6822F4D07270
:10109C00DA605A6922F001025A61202384F839304F
:1010AC0084F83A30002384F83830F8BDFFF77EF826
:1010BC00C01B8542DDD2E6E710B5044640B390F87C
:1010CC00393003F0FF021BB980F8382001F04AF8E0
:1010DC002423226884F83930D368204623F4005343
:1010EC00D360FFF723FF236800201A6922F4904293
:1010FC001A615A6922F02A025A61DA6842F40052E3
:10110C00DA602023E06384F8393084F83A3010BD7B
:10111C00012010BD2DE9F0411F4690F839300446EE
:10112C00202B0D4690464ED1002949D0002A47D09D
:10113C0090F83830012B46D0012380F8383000234A
:10114C00C363212380F83930FFF730F80646A4F842
:10115C002480A4F82680E38C9BB26BB93B463246C4
:10116C0040212046FFF780FFA8B9202384F83800DF
:10117C0084F83930BDE8F081E38C3246013B9BB2F8
:10118C00E384A3688021B3F5805F20463B460ED1F3
:10119C00FFF76AFF10B10320BDE8F0812B882268AD
:1011AC00C3F308035360236943B90235D3E7FFF750
:1011BC005BFF0028EFD123682A785A600135CAE713
:1011CC000120BDE8F0810220BDE8F081034B012233
:1011DC001988034B1868FFF73BB900BF8E0000203D
:1011EC0090000020034B01221988034B1868FFF76D
:1011FC002FB900BF8C00002090000020024608B1DF
:10120C00FFF7E4BF024B1988024B1868FFF720B9AF
:10121C008E00002090000020024608B1FFF7E2BFCC
:10122C00024B1988024B1868FFF712B98C0000208A
:10123C009000002013B504460020FFF7DFFF04F0F8
:10124C001F0402A901F8044D094C64230122204615
:10125C00FFF726FC642301220DF105012046FFF760
:10126C00C5FD9DF80540FFF7B1FF204602B010BD4B
:10127C009400002073B504460D4616460020FFF777
:10128C00BDFF04F01F0402A901F8044D074C6423B0
:10129C0001222046FFF704FC6423324629462046EF
:1012AC00FFF7A4FDFFF792FF02B070BD9400002081
:1012BC0037B504460D460020FFF7A0FF44F020048C
:1012CC006423022201A905488DF804408DF80550CD
:1012DC00FFF7E6FBFFF77AFF03B030BD9400002068
:1012EC0073B504460D4616460020FFF787FF44F001
:1012FC00200402A901F8044D074C64230122204666
:10130C00FFF7CEFB6423324629462046FFF7C8FB85
:10131C00FFF75CFF02B070BD9400002073B50E4B5C
:10132C0006461C7800208C4228BF0C46FFF766FF4F
:10133C0061230A4D02A901F8013D012264232846CC
:10134C00FFF7AEFB6423224631462846FFF74EFDDD
:10135C00FFF73CFF02B070BD2C0100209400002070
:10136C00FF21E120FFF7A4BFFF21E220FFF7A0BF80
:10137C000720FFF75FBF000008B50020FFF75AFFFA
:10138C0040F00301C9B20020FFF792FF0949D1E9EF
:10139C000023134303D005220A20FFF7A1FFFFF718
:1013AC00DFFFFFF7E1FFFFF71DFFBDE808409620C8
:1013BC00FEF702BF3001002013B50446CDE900232F
:1013CC00D8B91149C1E900230522104B6946185DB3
:1013DC00FFF786FF0E4B19780E4B185DFFF768FF71
:1013EC000220FFF727FF012101FA04F40443E1B2C4
:1013FC000220FFF75DFF02B010BD0628FBD80128C4
:10140C00E2D00122E1E700BF30010020982C000857
:10141C002C0100209F2C00087F28014628BF7F212B
:10142C000520FFF745BF0000202828BF2020014BD6
:10143C00187070472C0100206020FFF7FBBE10B520
:10144C00FFF76CFF1720FFF7F5FE0446FFF78CFF44
:10145C00FFF7F2FF04F0010010BD08B51D20FFF7E7
:10146C00E9FE00F0FB011D20FFF722FFBDE808405C
:10147C0000211C20FFF71CBF014600B13F210120B9
:10148C00FFF716BF10B504460620FFF7D3FE032C5A
:10149C0000F0F90102D141F0060103E0022C06D163
:1014AC0041F004010620BDE81040FFF701BF012CFC
:1014BC0002D141F00201F5E7042CF3D1EBE738B58A
:1014CC0005460620FFF7B6FE022D00F0D7040CD11E
:1014DC0044F0200421460620FFF7EAFE0620FFF721
:1014EC00A9FE231A5842584138BD012D08BF44F0BB
:1014FC000804EFE710B504460020FFF79BFE00F050
:10150C00F3012CB1012C0CBF41F0080141F00C018E
:10151C000020BDE81040FFF7CBBE08B50020FFF758
:10152C0089FEBDE8084000F0FD010020FFF7C0BEB9
:10153C0070B50546FFF71CFF00F04003002B044676
:10154C0014BF012600260DD015B1C0F342032B7039
:10155C0040210720FFF7ACFEA30603D5202107206E
:10156C00FFF7A6FE304670BD0020FFF7E1BF70B557
:10157C00164604460D460020FFF740FE202E04F0D0
:10158C0007003246294628BF202240F0A800FFF76A
:10159C00A7FEBDE87040FFF719BE70210720FFF7CA
:1015AC0087BE000007B50020FFF728FE50238DF8FA
:1015BC000430732302228DF8053001A964230448FA
:1015CC00FFF76EFAFFF702FE03B05DF804FB00BFF5
:1015DC009400002008B51D20FFF72CFE40F00601FA
:1015EC00C9B21D20FFF764FE1D20FFF723FE50B982
:1015FC00FFF7D8FF1D20FFF71DFE40F00601C9B212
:10160C001D20FFF755FE1C20FFF714FEBDE8084017
:10161C0040F00301C9B21C20FFF74ABE08B51D20DB
:10162C00FFF708FE40F00401C9B21D20FFF740FE91
:10163C001D20FFF7FFFD50B9FFF7B4FF1D20FFF78A
:10164C00F9FD40F00401C9B21D20FFF731FE1C204A
:10165C00FFF7F0FDBDE8084040F03F01C9B21C2087
:10166C00FFF726BE10B5A0B0BC4907A800F086FE57
:10167C0007A8FEF765FD0A2382B207A9B848FFF751
:10168C0049FD0020FFF7D6FD040740F130824007EA
:10169C004CBFB449B44907A800F070FE07A8FEF788
:1016AC004FFD0A2382B207A9AD48FFF733FD012095
:1016BC00FFF7C0FDC0F340130393C0F30013029374
:1016CC00C0F3C0030193C0F3800300F00102A749EB
:1016DC000093C0F3400307A800F02CFE07A8FEF708
:1016EC002FFD0A2382B207A99D48FFF713FD0220A4
:1016FC00FFF7A0FDC0F340130393C0F30013029354
:10170C00C0F3C0030193C0F3800300F001029849B9
:10171C000093C0F3400307A800F00CFE07A8FEF7E7
:10172C000FFD0A2382B207A98D48FFF7F3FC0320B3
:10173C00FFF780FD00F0030202328E4907A800F08B
:10174C00F9FD07A8FEF7FCFC0A2382B207A984481E
:10175C00FFF7E0FC0520FFF76DFD874900F07F02E5
:10176C0007A800F0E7FD07A8FEF7EAFC07A982B27C
:10177C000A237B48FFF7CEFC0620FFF75BFD010731
:10178C004CBF7E497E49044607A800F0F7FD07A828
:10179C00FEF7D6FCC4F3410482B20A2307A97048B1
:1017AC00FFF7B8FC002C40F0A481764907A800F0A4
:1017BC00E5FD07A8FEF7C4FC0A2382B207A9684816
:1017CC00FFF7A8FC05A905220A20FFF753FD9DF899
:1017DC0014109DF8173002919DF815109DF81820E3
:1017EC0001919DF8161007A80091674900F0A2FD21
:1017FC0007A8FEF7A5FC0A2382B207A95848FFF7F1
:10180C0089FC05A905220B20FFF734FD9DF8141067
:10181C009DF8173002919DF815109DF81820019134
:10182C009DF8161007A80091584900F083FD07A8F1
:10183C00FEF786FC0A2382B207A94948FFF76AFC27
:10184C0005A901220C20FFF715FD9DF81420504925
:10185C0007A800F06FFD07A8FEF772FC0A2382B2FE
:10186C0007A93F48FFF756FC05A901220D20FFF7F9
:10187C0001FD9DF81420474907A800F05BFD07A85F
:10188C00FEF75EFC0A2382B207A93548FFF742FC3B
:10189C0005A901220E20FFF7EDFC9DF814203E490E
:1018AC0007A800F047FD07A8FEF74AFC0A2382B2FE
:1018BC0007A92B48FFF72EFC05A901220F20FFF7E3
:1018CC00D9FC9DF81420354907A800F033FD07A872
:1018DC00FEF736FC0A2382B207A92148FFF71AFC4F
:1018EC0005A905221020FFF7C5FC9DF814109DF8E2
:1018FC00173002919DF815109DF8182001919DF854
:10190C00161007A80091264900F014FD07A8FEF751
:10191C0017FC0A2382B207A91148FFF7FBFB112021
:10192C00FFF788FC1F4900F03F0207A800F002FDFA
:10193C0007A8FEF705FC0A2382B207A90848FFF79F
:10194C00E9FB1220FFF776FC174900F03F0207A8CD
:10195C0000F0F0FC07A8FEF7F3FB27E0A52C00082D
:10196C00EC000020D82C0008F42C0008232D0008D3
:10197C00672D0008B02D0008C92D0008DC2D0008CB
:10198C00F32D00080A2E0008572E0008872E000899
:10199C00B72E0008DF2E0008072F00082F2F000895
:1019AC00572F0008812F00089A2F00080A2382B2B3
:1019BC0007A95448FFF7AEFB1320FFF73BFC524935
:1019CC0000F03F0207A800F0B5FC07A8FEF7B8FB33
:1019DC000A2382B207A94B48FFF79CFB1420FFF7A0
:1019EC0029FC4A4900F03F0207A800F0A3FC07A815
:1019FC00FEF7A6FB0A2382B207A94248FFF78AFB2F
:101A0C001520FFF717FC424900F03F0207A800F031
:101A1C0091FC07A8FEF794FB0A2382B207A9394868
:101A2C00FFF778FB1620FFF705FC3A4900F03F0260
:101A3C0007A800F07FFC07A8FEF782FB07A982B27B
:101A4C000A233048FFF766FB1C20FFF7F3FBC0F3BB
:101A5C0040130393C0F300130293C0F3C00301932C
:101A6C00C0F3800300F0010200932B49C0F3400344
:101A7C0007A800F05FFC07A8FEF762FB07A982B27B
:101A8C000A232048FFF746FB1D20FFF7D3FB420734
:101A9C004CBF22492249044607A800F06FFC07A856
:101AAC00FEF74EFB07A90A2382B21648FFF732FB5A
:101ABC00A3074CBF1B491C4907A800F05FFC07A8F3
:101ACC00FEF73EFB0A2382B207A90E48FFF722FB62
:101ADC00164907A800F052FC07A8FEF731FB0A23B1
:101AEC0082B207A90748FFF715FB20B010BD1049BB
:101AFC00D1E5012C01D10F4958E6022C0CBF0E493F
:101B0C000E4953E6EC000020B32F0008CC2F000840
:101B1C00E52F0008FE2F0008173000086130000880
:101B2C00773000088E300008A8300008A52C00087B
:101B3C000F2D00081E2E0008322E0008452E00081E
:101B4C0082B073B506460D46144606A9582241F8D4
:101B5C00043F5F4800F0DAFB5E4B1E605E4B1D805D
:101B6C005E4B02AD1C80FFF731FB0020FFF754FBEE
:101B7C000520FEF721FB08210020FFF799FB3F21F0
:101B8C000120FFF795FB03210220FFF791FB0321B6
:101B9C00E7240846FFF78CFB03210420FFF788FBA2
:101BAC0002210520FFF784FB0F210620FFF780FBA5
:101BBC000E210720FFF77CFB00210820FFF778FBA4
:101BCC0000210920FFF774FB05F8084D2946052272
:101BDC000A208DF804408DF803408DF802408DF8F2
:101BEC000140FFF77DFBC223052229460B208DF80F
:101BFC0004308DF803308DF802308DF801308DF8FB
:101C0C000030FFF76DFBC3210C20FFF751FBC42103
:101C1C000D20FFF74DFBC5210E20FFF749FBC62118
:101C2C000F20FFF745FB0522294610208DF80440B4
:101C3C008DF803408DF802408DF801408DF800407E
:101C4C00FFF74EFB00211120FFF732FB0021122081
:101C5C00FFF72EFB00211320FFF72AFB0021142095
:101C6C00FFF726FB00211520FFF722FB0021162091
:101C7C00FFF71EFBFFF796FC00211C20FFF718FB5B
:101C8C0000211D20FFF714FBFFF7ECFCFF210420C3
:101C9C00FFF70EFB0320FFF7F5FB0220FFF70FFC0D
:101CAC000220FFF727FCFFF7D8FB20220C4B1A7001
:101CBC00FFF773FC4C20FFF7AFFBFFF751FBFFF76F
:101CCC0053FBFFF72AFC02B0BDE8704002B070472E
:101CDC0094000020900000208E0000208C0000203A
:101CEC002C01002084B030B503AC84E80F00084C04
:101CFC0003AD0FCD0FC40FCD0FC40FCD0FC495E89E
:101D0C000F0084E80F00BDE8304004B0704700BFFE
:101D1C00EC00002010B590B02822002106A800F09D
:101D2C0000FB0021142201A800F0FBFA4FF48033D1
:101D3C000122022407930E934FF4E01306A8069297
:101D4C000A920F930D94FEF789FB0F234FF48062D8
:101D5C0001930023214601A8029403930492059356
:101D6C00FEF746FD10B010BD80B5A2B0FEF704FA28
:101D7C00FFF7D0FF102200211AA800F0D2FABA4BBC
:101D8C004FF440719A69B94842F020029A619A69FD
:101D9C00002502F020021792179A9A69012742F047
:101DAC0004029A619A69B24C02F004021892189AD1
:101DBC009A694FF4007842F008029A619B690022FC
:101DCC0003F008031993199BFEF742FB4FF4407381
:101DDC001A9302231AA9A5481C951D931B97FEF76D
:101DEC0057FA4FF48273A34A204684E80C00282348
:101DFC00E3610A23A560E560256165612562656282
:101E0C00A562E362C4F81880FEF70DFE4FF4E133CF
:101E1C00994E9A49304686E80A000C23B5607361E6
:101E2C00F5603561B561F561FFF746F9211D542266
:101E3C00684600F06BFA23686C464FF4807241469A
:101E4C008A4806F11005FFF77BFE0FCD0FC40FCDAE
:101E5C000FC495E80F0084E80F0096E80F00FFF719
:101E6C0041FFFFF7FFFB3846FFF706FB3420FFF777
:101E7C00D3FA2020FFF7D8FA814B3846D3E9002358
:101E8C00FFF79AFAFFF7CAFBFFF7A4FBFFF774FA08
:101E9C007C4CFFF769FB0028FBD010217948FFF739
:101EAC00CEFA0A23102277493046FFF733F92388FC
:101EBC008C2B20D9744B1AAA03F1100715461868FD
:101ECC005968083303C5BB422A46F7D1998818686C
:101EDC009B792860AB710023A9801AA8CDF87F30BC
:101EEC00CDF883308DF88730FEF72AF91AA9C2B2E3
:101EFC000120FFF73CFB6388642B1AD9634B1AAAA9
:101F0C0003F11807154618685968083303C5BB4216
:101F1C002A46F7D11B881AA82B800023CDF88230D3
:101F2C00ADF88630FEF70CF91AA9C2B20120FFF702
:101F3C001EFBA3888C2B1DD9554B1AAA03F1100735
:101F4C00154618685968083303C5BB422A46F7D1B1
:101F5C0019889B780D222980AB7000210DF17B0034
:101F6C0000F0DFF91AA8FEF7EBF81AA9C2B20120AB
:101F7C00FFF7FDFAE388A02B1BD9464B1AAA03F1F5
:101F8C001007154618685968083303C5BB422A4622
:101F9C00F7D11B780F2200212B700DF1790000F086
:101FAC00C0F91AA8FEF7CCF81AA9C2B20120FFF7A3
:101FBC00DEFA2389042B1CD8374B1AAA03F1180715
:101FCC00154618685968083303C5BB422A46F7D131
:101FDC0018681B7928602B7100231AA8ADF885307E
:101FEC008DF88730FEF7ACF81AA9C2B20120FFF7C2
:101FFC00BEFA63898C2B1AD9284B1AAA03F118073D
:10200C00154618685968083303C5BB422A46F7D1F0
:10201C001B881AA82B800023CDF88230ADF88630AF
:10202C00FEF78EF81AA9C2B20120FFF7A0FAE389D5
:10203C00C82B7FF62EAF1A4B1AAA03F118071546B8
:10204C0018685968083303C5BB422A46F7D118688B
:10205C00002328601AA82193FEF772F81AA9C2B2BD
:10206C000120FFF784FA14E7001002400008014039
:10207C004801002000380040B0010020004400401E
:10208C0000000020A0010020B82B0008D82B00086D
:10209C00F82B0008182C0008382C0008582C0008C5
:1020AC00782C00080F4B82B09A6942F001029A61B9
:1020BC009A6902F001020092009ADA6942F08052A9
:1020CC00DA61DB6903F080530193019B064B5A687C
:1020DC0022F0E0625A605A6842F000725A6002B014
:1020EC00704700BF001002400000014010B50446CC
:1020FC0086B01022002102A800F013F92268174BB9
:10210C009A4228D103F5EC33DA6902A942F48042F1
:10211C00DA61DA69124802F480420092009A9A69F4
:10212C0042F008029A619B6903F008030193019B3A
:10213C004FF4204302930223039303230593FEF7EA
:10214C00A7F84FF480430293002302A90448039399
:10215C000493FEF79DF806B010BD00BF0038004098
:10216C00000C014010B5044686B01022002102A8D4
:10217C0000F0D7F82268164B9A4226D103F5E633C5
:10218C00DA6902A942F40032DA61DA69114802F420
:10219C0000320092009A9A6942F004029A619B699B
:1021AC0003F004030193019B042302930223039382
:1021BC0003230593FEF76CF808230293002302A96E
:1021CC00044803930493FEF763F806B010BD00BFF8
:1021DC0000440040000801407047FEE7FEE7FEE7C0
:1021EC00FEE7704770477047FDF7D8BF08B50A4B3C
:1021FC000246196809B90949196069461868024408
:10220C008A4206D900F058F80C2303604FF0FF30D7
:10221C0008BD1A6008BD00BF38010020F401002081
:10222C000F4B1A6842F001021A6059680D4A0A40B5
:10223C005A601A6822F0847222F480321A601A688A
:10224C0022F480221A605A6822F4FE025A604FF47B
:10225C001F029A604FF00062034B9A60704700BFF8
:10226C00001002400000FFF800ED00E0002103E048
:10227C000B4B5B58435004310A480B4B42189A42A3
:10228C00F6D30A4A02E0002342F8043B084B9A4278
:10229C00F9D3FFF7C5FF00F015F8FFF765FD7047A0
:1022AC001831000800000020700000207000002091
:1022BC00F4010020FEE70000014B1868704700BFD6
:1022CC000C00002070B500250C4E0D4CA41BA41066
:1022DC00A54209D100F056FC00250A4E0A4CA41B5D
:1022EC00A410A54205D170BD56F82530984701358C
:1022FC00EEE756F8253098470135F2E71031000823
:10230C0010310008103100081431000810B5431EBC
:10231C000A44914200D110BD11F8014B03F8014F52
:10232C00F7E703460244934200D1704703F8011BC0
:10233C00F9E700000EB44FF4027100B59CB0ADF893
:10234C0014106FF00041049107914FF6FF711DAB13
:10235C0002900690084853F8042BADF8161000684C
:10236C0002A9019300F06EF80022029B1A701CB0B7
:10237C005DF804EB03B070470C000020034611F825
:10238C00012B03F8012B002AF9D170472DE9F047F6
:10239C008E6882469E420C469146984635D88A896C
:1023AC0012F4906F31D00223256809696F1A6569A0
:1023BC0005EB450595FBF3F508F101033B449D4204
:1023CC0038BF1D46530531D5294600F03BFB064668
:1023DC0050B90C23CAF80030A3894FF0FF3043F0FA
:1023EC004003A381BDE8F0873A462169FFF78EFFD1
:1023FC00A38923F4906343F08003A38126613E44B8
:10240C00266046466561ED1BA560464528BF4646DD
:10241C0049463246206800F0AFFAA36800209B1BA7
:10242C00A36023681E442660BDE8F0872A4600F0AE
:10243C0067FB06460028E1D12169504600F0B6FA48
:10244C00C7E700002DE9F04F9DB003938B898046C0
:10245C001C060D4616460FD50B696BB9402100F0D2
:10246C00F1FA2860286128B90C23C8F800304FF025
:10247C00FF30C4E040236B610023099320238DF8C7
:10248C00293030234FF0010B8DF82A3037463C466B
:10249C0014F8013B002B3CD1B7EB060A0BD053468A
:1024AC00324629464046FFF771FF013000F0A2800A
:1024BC00099B534409933B78002B00F09B8000232D
:1024CC004FF0FF3204930793059206938DF8533027
:1024DC001A9305222178504800F040FA671C049B9F
:1024EC00D8B9D90644BF20228DF853201A0744BF0F
:1024FC002B228DF8532022782A2A16D000210A206C
:10250C00079A27463B780134303B092B50D9C9B187
:10251C0011E0252BC0D02746B9E73F4A3C46801A2C
:10252C000BFA00F018430490D3E7039A111D1268BC
:10253C000391002A01DB079204E0524243F00203AC
:10254C00079204933B782E2B0DD17B78791C2A2B88
:10255C0032D1039B02371A1D1B680392002BB8BFA4
:10256C004FF0FF3305932D4C03223978204600F0B1
:10257C00F5F938B14023001B03FA00F0049B013736
:10258C00034304933978062225487E1C8DF82810C5
:10259C0000F0E4F9002835D0224BFBB9039B07333C
:1025AC0023F0070308330393099B4B4409936DE70E
:1025BC0000FB02320121A4E700230A2418460593EC
:1025CC000F463A780131303A092A03D9002BCAD088
:1025DC000590C8E704FB00200123F1E703AB00934F
:1025EC002A46114B04A94046AFF30080B0F1FF3FDF
:1025FC008146D9D1AB895B063FF539AF09981DB03F
:10260C00BDE8F08F03AB00932A46074B04A9404664
:10261C0000F084F8EAE700BFDB300008E130000886
:10262C00E530000800000000992300082DE9F04770
:10263C0091461F468A680B6906469342B8BF1346FB
:10264C00C9F8003091F843200C46DDF8208012B117
:10265C000133C9F800302368990642BFD9F800301D
:10266C000233C9F80030256815F0060507D104F1CE
:10267C00190AE368D9F800209B1A9D422ADB94F8CA
:10268C0043302268003318BF012392062FD404F183
:10269C00430239463046C047013022D02368E568F2
:1026AC0003F00603042B18BF0025D9F800204FF0C7
:1026BC00000908BFAD1AA368226908BF25EAE575B1
:1026CC009342C4BF9B1AED181A344D451BD1002000
:1026DC00BDE8F0870123524639463046C0470130E9
:1026EC0003D14FF0FF30BDE8F0870135C1E7302052
:1026FC00E11881F843005A1C94F845102244023327
:10270C0082F84310C3E70123224639463046C047BE
:10271C000130E6D009F10109D7E700002DE9F043BB
:10272C0017460A7E85B06E2A984606460C460C9BC8
:10273C0001F1430E00F0BC801AD8632A2ED00AD8BF
:10274C00002A00F0C880582A00F08A8004F1420563
:10275C0084F842202AE0642A01D0692AF6D1216843
:10276C001A6811F0800F23D0111D1960136827E02F
:10277C00732A00F0B48008D86F2A2AD0702AE5D1C9
:10278C000A6842F020020A6003E0752A21D0782AF8
:10279C00DCD178226F4984F8452064E01A6801F195
:1027AC004205111D1960136884F842300123A3E01F
:1027BC0011F0400F02F104011960D7D0B2F90030CA
:1027CC00002B03DA2D225B4284F8432062490A2253
:1027DC0017E02068196810F0800F03D0081D1860EE
:1027EC000B6806E010F0400F01F104001860F7D000
:1027FC000B886F2A14BF0A2208225749002084F83C
:10280C0043006568002DA560C0F29C80206820F014
:10281C0004002060002B3FD1002D40F095807546C0
:10282C00082A0BD12368DA0708D5236962689A4213
:10283C00DEBF302305F8013C05F1FF35AEEB050397
:10284C002361CDF800803B4603AA21463046FFF7B2
:10285C00EDFE013055D14FF0FF3005B0BDE8F083EF
:10286C0081F845203C492268186812F0800F00F16D
:10287C0004051D6001D0036802E05506FBD50388F2
:10288C00D00744BF42F0200222601BB9226822F01C
:10289C00200222601022B1E77546B3FBF2F002FB76
:1028AC001033CB5C05F8013D03460028F5D1B7E7A2
:1028BC0008681A6810F0800F496904D0101D186060
:1028CC001368196007E010F0400F02F10400186063
:1028DC001368F6D01980002375462361B1E71A6896
:1028EC00111D1960156800216268284600F036F841
:1028FC0008B1401B606063682361002384F8433097
:10290C009FE723692A4639463046C0470130A2D09A
:10291C0023689B0707D5002504F11909E368039A7E
:10292C009B1A9D4205DBE068039B9842B8BF184692
:10293C0093E701234A4639463046C04701308AD0D6
:10294C000135EBE7002BA7D10B7804F1420584F895
:10295C00423065E7FD300008EC30000810B5C9B214
:10296C0002449042034601D1002010BD1C78013076
:10297C008C42F6D1184610BD884210B501EB02030B
:10298C0003D8421E99420CD110BD9842F9D281183D
:10299C00D21AD34200D110BD13F8014D01F8014DEC
:1029AC00F7E711F8014B02F8014FEBE738B5054694
:1029BC00002943D051F8043C0C1F002BB8BFE4187D
:1029CC0000F0D4F81E4A1368104633B963601460E3
:1029DC002846BDE8384000F0CAB8A3420BD921689C
:1029EC006218934201BF1A685B68521822606360D8
:1029FC000460EDE713465A680AB1A242FAD9196885
:102A0C005818A0420BD12068014458188242196012
:102A1C00DED110685268014419605A60D8E702D9B7
:102A2C000C232B60D4E7206821188A4201BF11685F
:102A3C0052680918216062605C60C9E738BD00BF4C
:102A4C003C01002070B5CD1C25F0030508350C2D7C
:102A5C0038BF0C25002D064601DBA94203D90C23F7
:102A6C003360002070BD00F081F8234A14682146C1
:102A7C0091B9224C23681BB9304600F067F82060EE
:102A8C002946304600F062F8431C26D10C23304610
:102A9C00336000F06CF8E4E70B685B1B1AD40B2B6B
:102AAC000FD90B60CC18CD50304600F060F804F113
:102ABC000B00231D20F00700C31A1BD05A42E25012
:102ACC0070BD8C420BBF63684B681360636018BFAA
:102ADC000C46E9E70C464968CAE7C41C24F0030419
:102AEC00A04205D0211A304600F030F80130CDD08C
:102AFC002560D9E770BD00BF3C01002040010020DB
:102B0C00F8B5074614460E4621B91146BDE8F84003
:102B1C00FFF798BF22B9FFF749FF25462846F8BDB5
:102B2C0000F026F884420FD921463846FFF78AFF79
:102B3C0005460028F2D031462246FFF7E7FB314626
:102B4C003846FFF733FFE9E73546E7E738B50023AA
:102B5C00054C054608462360FFF748FB431C02D191
:102B6C00236803B12B6038BDF0010020704770471B
:102B7C0051F8040C0028A0F10400BCBF0B58C0187D
:102B8C0070470000F8B500BFF8BC08BC9E46704703
:0C2B9C00F8B500BFF8BC08BC9E467047AE
:102BA80002030405060708090A0B0C0D0E0F101086
:102BB8005741524E494E47204869676820707265F0
:102BC80073737572652100000000000000000000AA
:102BD8005741524E494E4720486967682074656DD1
:102BE8007065726174757265210000000000000054
:102BF8005741524E494E47204D61782073706565A4
:102C08006421000000000000000000000000000037
:102C18005741524E494E47204D61782052504D2120
:102C2800000000000000000000000000000000009C
:102C38005741524E494E47204C6F77206261747459
:102C480065727920766F6C746167652100000000F9
:102C58005741524E494E47204D6178206163636564
:102C68006C65726174696F6E2100000000000000DD
:102C78005741524E494E47204D617820737465651F
:102C880072696E6720616E676C6521000000000044
:102C98000A0B0C0D0E0F101112131415160D0A2A1B
:102CA8002A2A2A2A2A2A2A2A2A2A2A2A2A2A2A2A7C
:102CB8002A2A2A2A2A2A2A2A2A2A2A2A2A2A2A2A6C
:102CC8002A2A2A2A2A2A2A2A2A2A2A2A2A0D0A00C3
:102CD8004352433A0D0A0909456E61626C65642CDA
:102CE8002032204279746573200D0A004352433A1A
:102CF8000D0A0909456E61626C65642C2031204219
:102D0800797465200D0A004352433A0D0A090944B3
:102D1800697361626C6564200D0A00454E41413A51
:102D28000D0A090950303A0925640D0A090950317C
:102D38003A0925640D0A090950323A0925640D0A31
:102D4800090950333A0925640D0A090950343A092A
:102D580025640D0A090950353A0925640D0A00450C
:102D68004E5F5258414444523A0D0A090950303ACC
:102D78000925640D0A090950313A0925640D0A0923
:102D88000950323A0925640D0A090950333A0925D0
:102D9800640D0A090950343A0925640D0A090950D5
:102DA800353A0925640D0A0053455455505F41577B
:102DB8003A0D0A09092564206279746573200D0AA1
:102DC8000052465F43483A0D0A09092564204348E2
:102DD800200D0A004461746120526174653A0D0A3D
:102DE8000909324D627073200D0A00446174612034
:102DF800526174653A0D0A0909314D627073200DEC
:102E08000A0052465F5057523A0D0A09092D3138C7
:102E18006442200D0A0052465F5057523A0D0A0983
:102E2800092D31326442200D0A0052465F50575234
:102E38003A0D0A09092D366442200D0A0052465FF0
:102E48005057523A0D0A0909306442200D0A0052BF
:102E5800585F50697065302041646472733A0D0A96
:102E68000909253032582C253032582C2530325853
:102E78002C253032582C2530325820200D0A00528B
:102E8800585F50697065312041646472733A0D0A65
:102E98000909253032582C253032582C2530325823
:102EA8002C253032582C2530325820200D0A00525B
:102EB800585F50697065322041646472733A0D0A34
:102EC800090978782C78782C78782C78782C253023
:102ED800325820200D0A0052585F5069706533201F
:102EE80041646472733A0D0A090978782C78782C51
:102EF80078782C78782C2530325820200D0A00520A
:102F0800585F50697065342041646472733A0D0AE1
:102F1800090978782C78782C78782C78782C2530D2
:102F2800325820200D0A0052585F506970653520CC
:102F380041646472733A0D0A090978782C78782C00
:102F480078782C78782C2530325820200D0A0054B7
:102F5800582041646472733A0D0A090925303258C1
:102F68002C253032582C253032582C253032582C0C
:102F78002530325820200D0A0052585F50575F50B4
:102F8800303A0D0A09092564206279746573200DA9
:102F98000A0052585F50575F50313A0D0A09092507
:102FA80064206279746573200D0A0052585F505787
:102FB8005F50323A0D0A09092564206279746573F5
:102FC800200D0A0052585F50575F50333A0D0A09D6
:102FD800092564206279746573200D0A0052585FD0
:102FE80050575F50343A0D0A0909256420627974F4
:102FF8006573200D0A0052585F50575F50353A0DDF
:103008000A09092564206279746573200D0A004451
:10301800594E50445F706970653A0D0A090950307D
:103028003A0925640D0A090950313A0925640D0A3F
:10303800090950323A0925640D0A090950333A0939
:1030480025640D0A090950343A0925640D0A09094D
:1030580050353A0925640D0A00454E5F44504C3AF4
:103068000D0A0909456E61626C6564200D0A004508
:103078004E5F44504C3A0D0A090944697361626C09
:103088006564200D0A00454E5F41434B5F5041592E
:103098003A0D0A0909456E61626C6564200D0A00E3
:1030A800454E5F41434B5F5041593A0D0A09094467
:1030B800697361626C6564200D0A000000000000FD
:1030C80000000001020304060708090000000001CF
:1030D800020304232D302B2000686C4C00656667C2
:1030E8004546470030313233343536373839414276
:1030F8004344454600303132333435363738396148
:083108006263646566000000CB
:043110003101000881
:043114000D010008A1
:10311800AA4433221100000000A24A041000002033
:103128000000000000000000000000000000000097
:103138000000000000000000000000000000000087
:103148000000000000000000000000000000000077
:103158000000000000000000000000000000000067
:103168000000000000000000000000000000000057
:103178000000000000000000000000000000000047
:040000050800227954
:00000001FF
